{
  "_format": "hh-sol-artifact-1",
  "contractName": "GeneralVotingCommission",
  "sourceName": "contracts/GeneralVotingCommission.sol",
  "abi": [
    {
      "inputs": [
        {
          "internalType": "string",
          "name": "_title",
          "type": "string"
        },
        {
          "internalType": "string[]",
          "name": "_candidateNames",
          "type": "string[]"
        },
        {
          "internalType": "uint256",
          "name": "_startTime",
          "type": "uint256"
        },
        {
          "internalType": "uint256",
          "name": "_endTime",
          "type": "uint256"
        }
      ],
      "stateMutability": "nonpayable",
      "type": "constructor"
    },
    {
      "anonymous": false,
      "inputs": [
        {
          "indexed": false,
          "internalType": "string",
          "name": "title",
          "type": "string"
        },
        {
          "indexed": false,
          "internalType": "uint256",
          "name": "candidateCount",
          "type": "uint256"
        },
        {
          "indexed": false,
          "internalType": "uint256",
          "name": "startTime",
          "type": "uint256"
        },
        {
          "indexed": false,
          "internalType": "uint256",
          "name": "endTime",
          "type": "uint256"
        }
      ],
      "name": "ElectionCreated",
      "type": "event"
    },
    {
      "anonymous": false,
      "inputs": [
        {
          "indexed": true,
          "internalType": "address",
          "name": "voter",
          "type": "address"
        },
        {
          "indexed": true,
          "internalType": "uint256",
          "name": "candidateId",
          "type": "uint256"
        },
        {
          "indexed": false,
          "internalType": "uint256",
          "name": "timestamp",
          "type": "uint256"
        }
      ],
      "name": "VoteCast",
      "type": "event"
    },
    {
      "inputs": [],
      "name": "admin",
      "outputs": [
        {
          "internalType": "address",
          "name": "",
          "type": "address"
        }
      ],
      "stateMutability": "view",
      "type": "function"
    },
    {
      "inputs": [],
      "name": "candidateCount",
      "outputs": [
        {
          "internalType": "uint256",
          "name": "",
          "type": "uint256"
        }
      ],
      "stateMutability": "view",
      "type": "function"
    },
    {
      "inputs": [
        {
          "internalType": "uint256",
          "name": "",
          "type": "uint256"
        }
      ],
      "name": "candidates",
      "outputs": [
        {
          "internalType": "uint256",
          "name": "id",
          "type": "uint256"
        },
        {
          "internalType": "string",
          "name": "name",
          "type": "string"
        },
        {
          "internalType": "uint256",
          "name": "voteCount",
          "type": "uint256"
        }
      ],
      "stateMutability": "view",
      "type": "function"
    },
    {
      "inputs": [],
      "name": "electionEnd",
      "outputs": [
        {
          "internalType": "uint256",
          "name": "",
          "type": "uint256"
        }
      ],
      "stateMutability": "view",
      "type": "function"
    },
    {
      "inputs": [],
      "name": "electionStart",
      "outputs": [
        {
          "internalType": "uint256",
          "name": "",
          "type": "uint256"
        }
      ],
      "stateMutability": "view",
      "type": "function"
    },
    {
      "inputs": [],
      "name": "electionTitle",
      "outputs": [
        {
          "internalType": "string",
          "name": "",
          "type": "string"
        }
      ],
      "stateMutability": "view",
      "type": "function"
    },
    {
      "inputs": [],
      "name": "getAllCandidates",
      "outputs": [
        {
          "components": [
            {
              "internalType": "uint256",
              "name": "id",
              "type": "uint256"
            },
            {
              "internalType": "string",
              "name": "name",
              "type": "string"
            },
            {
              "internalType": "uint256",
              "name": "voteCount",
              "type": "uint256"
            }
          ],
          "internalType": "struct GeneralVotingCommission.Candidate[]",
          "name": "",
          "type": "tuple[]"
        }
      ],
      "stateMutability": "view",
      "type": "function"
    },
    {
      "inputs": [
        {
          "internalType": "uint256",
          "name": "_candidateId",
          "type": "uint256"
        }
      ],
      "name": "getCandidate",
      "outputs": [
        {
          "internalType": "uint256",
          "name": "",
          "type": "uint256"
        },
        {
          "internalType": "string",
          "name": "",
          "type": "string"
        },
        {
          "internalType": "uint256",
          "name": "",
          "type": "uint256"
        }
      ],
      "stateMutability": "view",
      "type": "function"
    },
    {
      "inputs": [],
      "name": "getElectionInfo",
      "outputs": [
        {
          "internalType": "string",
          "name": "title",
          "type": "string"
        },
        {
          "internalType": "uint256",
          "name": "start",
          "type": "uint256"
        },
        {
          "internalType": "uint256",
          "name": "end",
          "type": "uint256"
        },
        {
          "internalType": "uint256",
          "name": "numCandidates",
          "type": "uint256"
        },
        {
          "internalType": "uint256",
          "name": "votes",
          "type": "uint256"
        },
        {
          "internalType": "bool",
          "name": "active",
          "type": "bool"
        }
      ],
      "stateMutability": "view",
      "type": "function"
    },
    {
      "inputs": [
        {
          "internalType": "address",
          "name": "_voter",
          "type": "address"
        }
      ],
      "name": "hasUserVoted",
      "outputs": [
        {
          "internalType": "bool",
          "name": "",
          "type": "bool"
        }
      ],
      "stateMutability": "view",
      "type": "function"
    },
    {
      "inputs": [
        {
          "internalType": "address",
          "name": "",
          "type": "address"
        }
      ],
      "name": "hasVoted",
      "outputs": [
        {
          "internalType": "bool",
          "name": "",
          "type": "bool"
        }
      ],
      "stateMutability": "view",
      "type": "function"
    },
    {
      "inputs": [],
      "name": "isActive",
      "outputs": [
        {
          "internalType": "bool",
          "name": "",
          "type": "bool"
        }
      ],
      "stateMutability": "view",
      "type": "function"
    },
    {
      "inputs": [],
      "name": "totalVotes",
      "outputs": [
        {
          "internalType": "uint256",
          "name": "",
          "type": "uint256"
        }
      ],
      "stateMutability": "view",
      "type": "function"
    },
    {
      "inputs": [
        {
          "internalType": "uint256",
          "name": "_candidateId",
          "type": "uint256"
        }
      ],
      "name": "vote",
      "outputs": [],
      "stateMutability": "nonpayable",
      "type": "function"
    }
  ],
  "bytecode": "0x60806040523480156200001157600080fd5b5060405162001e0238038062001e028339818101604052810190620000379190620004f5565b60008351116200007e576040517f08c379a0000000000000000000000000000000000000000000000000000000008152600401620000759062000606565b60405180910390fd5b818111620000c3576040517f08c379a0000000000000000000000000000000000000000000000000000000008152600401620000ba906200069e565b60405180910390fd5b336000806101000a81548173ffffffffffffffffffffffffffffffffffffffff021916908373ffffffffffffffffffffffffffffffffffffffff160217905550836001908162000114919062000901565b50816002819055508060038190555060005b8351811015620001df5760046000815480929190620001459062000a17565b91905055506040518060600160405280600454815260200185838151811062000173576200017262000a64565b5b602002602001015181526020016000815250600660006004548152602001908152602001600020600082015181600001556020820151816001019081620001bb919062000901565b50604082015181600201559050508080620001d69062000a17565b91505062000126565b507f9fa0f9aa5d20b446eac9258a8202745ba53d250bb62b5f60dd02de31aed75a7c84600454848460405162000219949392919062000ae5565b60405180910390a15050505062000b39565b6000604051905090565b600080fd5b600080fd5b600080fd5b600080fd5b6000601f19601f8301169050919050565b7f4e487b7100000000000000000000000000000000000000000000000000000000600052604160045260246000fd5b620002948262000249565b810181811067ffffffffffffffff82111715620002b657620002b56200025a565b5b80604052505050565b6000620002cb6200022b565b9050620002d9828262000289565b919050565b600067ffffffffffffffff821115620002fc57620002fb6200025a565b5b620003078262000249565b9050602081019050919050565b60005b838110156200033457808201518184015260208101905062000317565b60008484015250505050565b6000620003576200035184620002de565b620002bf565b90508281526020810184848401111562000376576200037562000244565b5b6200038384828562000314565b509392505050565b600082601f830112620003a357620003a26200023f565b5b8151620003b584826020860162000340565b91505092915050565b600067ffffffffffffffff821115620003dc57620003db6200025a565b5b602082029050602081019050919050565b600080fd5b6000620004096200040384620003be565b620002bf565b905080838252602082019050602084028301858111156200042f576200042e620003ed565b5b835b818110156200047d57805167ffffffffffffffff8111156200045857620004576200023f565b5b8086016200046789826200038b565b8552602085019450505060208101905062000431565b5050509392505050565b600082601f8301126200049f576200049e6200023f565b5b8151620004b1848260208601620003f2565b91505092915050565b6000819050919050565b620004cf81620004ba565b8114620004db57600080fd5b50565b600081519050620004ef81620004c4565b92915050565b6000806000806080858703121562000512576200051162000235565b5b600085015167ffffffffffffffff8111156200053357620005326200023a565b5b62000541878288016200038b565b945050602085015167ffffffffffffffff8111156200056557620005646200023a565b5b620005738782880162000487565b93505060406200058687828801620004de565b92505060606200059987828801620004de565b91505092959194509250565b600082825260208201905092915050565b7f4d7573742068617665206174206c65617374206f6e652063616e646964617465600082015250565b6000620005ee602083620005a5565b9150620005fb82620005b6565b602082019050919050565b600060208201905081810360008301526200062181620005df565b9050919050565b7f456e642074696d65206d7573742062652061667465722073746172742074696d60008201527f6500000000000000000000000000000000000000000000000000000000000000602082015250565b600062000686602183620005a5565b9150620006938262000628565b604082019050919050565b60006020820190508181036000830152620006b98162000677565b9050919050565b600081519050919050565b7f4e487b7100000000000000000000000000000000000000000000000000000000600052602260045260246000fd5b600060028204905060018216806200071357607f821691505b602082108103620007295762000728620006cb565b5b50919050565b60008190508160005260206000209050919050565b60006020601f8301049050919050565b600082821b905092915050565b600060088302620007937fffffffffffffffffffffffffffffffffffffffffffffffffffffffffffffffff8262000754565b6200079f868362000754565b95508019841693508086168417925050509392505050565b6000819050919050565b6000620007e2620007dc620007d684620004ba565b620007b7565b620004ba565b9050919050565b6000819050919050565b620007fe83620007c1565b620008166200080d82620007e9565b84845462000761565b825550505050565b600090565b6200082d6200081e565b6200083a818484620007f3565b505050565b5b8181101562000862576200085660008262000823565b60018101905062000840565b5050565b601f821115620008b1576200087b816200072f565b620008868462000744565b8101602085101562000896578190505b620008ae620008a58562000744565b8301826200083f565b50505b505050565b600082821c905092915050565b6000620008d660001984600802620008b6565b1980831691505092915050565b6000620008f18383620008c3565b9150826002028217905092915050565b6200090c82620006c0565b67ffffffffffffffff8111156200092857620009276200025a565b5b620009348254620006fa565b6200094182828562000866565b600060209050601f83116001811462000979576000841562000964578287015190505b620009708582620008e3565b865550620009e0565b601f19841662000989866200072f565b60005b82811015620009b3578489015182556001820191506020850194506020810190506200098c565b86831015620009d35784890151620009cf601f891682620008c3565b8355505b6001600288020188555050505b505050505050565b7f4e487b7100000000000000000000000000000000000000000000000000000000600052601160045260246000fd5b600062000a2482620004ba565b91507fffffffffffffffffffffffffffffffffffffffffffffffffffffffffffffffff820362000a595762000a58620009e8565b5b600182019050919050565b7f4e487b7100000000000000000000000000000000000000000000000000000000600052603260045260246000fd5b600062000aa082620006c0565b62000aac8185620005a5565b935062000abe81856020860162000314565b62000ac98162000249565b840191505092915050565b62000adf81620004ba565b82525050565b6000608082019050818103600083015262000b01818762000a93565b905062000b12602083018662000ad4565b62000b21604083018562000ad4565b62000b30606083018462000ad4565b95945050505050565b6112b98062000b496000396000f3fe608060405234801561001057600080fd5b50600436106100ea5760003560e01c80637fabe80a1161008c578063c1211c8611610066578063c1211c861461026a578063c546c3b214610288578063ce7ea161146102a6578063f851a440146102c4576100ea565b80637fabe80a146101f957806386852dca14610229578063a9a981a31461024c576100ea565b806322f3e2d4116100c857806322f3e2d4146101595780632e6997fe146101775780633477ee2e1461019557806335b8e820146101c7576100ea565b80630121b93f146100ef57806309eef43e1461010b5780630d15fd771461013b575b600080fd5b61010960048036038101906101049190610b1d565b6102e2565b005b61012560048036038101906101209190610ba8565b610538565b6040516101329190610bf0565b60405180910390f35b610143610558565b6040516101509190610c1a565b60405180910390f35b61016161055e565b60405161016e9190610bf0565b60405180910390f35b61017f610579565b60405161018c9190610de6565b60405180910390f35b6101af60048036038101906101aa9190610b1d565b6106ee565b6040516101be93929190610e52565b60405180910390f35b6101e160048036038101906101dc9190610b1d565b6107a0565b6040516101f093929190610e52565b60405180910390f35b610213600480360381019061020e9190610ba8565b6108db565b6040516102209190610bf0565b60405180910390f35b610231610931565b60405161024396959493929190610e90565b60405180910390f35b6102546109fd565b6040516102619190610c1a565b60405180910390f35b610272610a03565b60405161027f9190610c1a565b60405180910390f35b610290610a09565b60405161029d9190610ef8565b60405180910390f35b6102ae610a97565b6040516102bb9190610c1a565b60405180910390f35b6102cc610a9d565b6040516102d99190610f29565b60405180910390f35b600254421015610327576040517f08c379a000000000000000000000000000000000000000000000000000000000815260040161031e90610f90565b60405180910390fd5b60035442111561036c576040517f08c379a000000000000000000000000000000000000000000000000000000000815260040161036390610ffc565b60405180910390fd5b600760003373ffffffffffffffffffffffffffffffffffffffff1673ffffffffffffffffffffffffffffffffffffffff16815260200190815260200160002060009054906101000a900460ff16156103f9576040517f08c379a00000000000000000000000000000000000000000000000000000000081526004016103f09061108e565b60405180910390fd5b60008111801561040b57506004548111155b61044a576040517f08c379a0000000000000000000000000000000000000000000000000000000008152600401610441906110fa565b60405180910390fd5b6001600760003373ffffffffffffffffffffffffffffffffffffffff1673ffffffffffffffffffffffffffffffffffffffff16815260200190815260200160002060006101000a81548160ff0219169083151502179055506006600082815260200190815260200160002060020160008154809291906104c990611149565b9190505550600560008154809291906104e190611149565b9190505550803373ffffffffffffffffffffffffffffffffffffffff167fb4cfecf70861b7b150d8337780d34fb4cbc2114b5fb1fe51a5c5fca1849f72744260405161052d9190610c1a565b60405180910390a350565b60076020528060005260406000206000915054906101000a900460ff1681565b60055481565b6000600254421015801561057457506003544211155b905090565b6060600060045467ffffffffffffffff81111561059957610598611191565b5b6040519080825280602002602001820160405280156105d257816020015b6105bf610ac1565b8152602001906001900390816105b75790505b5090506000600190505b60045481116106e657600660008281526020019081526020016000206040518060600160405290816000820154815260200160018201805461061d906111ef565b80601f0160208091040260200160405190810160405280929190818152602001828054610649906111ef565b80156106965780601f1061066b57610100808354040283529160200191610696565b820191906000526020600020905b81548152906001019060200180831161067957829003601f168201915b50505050508152602001600282015481525050826001836106b79190611220565b815181106106c8576106c7611254565b5b602002602001018190525080806106de90611149565b9150506105dc565b508091505090565b6006602052806000526040600020600091509050806000015490806001018054610717906111ef565b80601f0160208091040260200160405190810160405280929190818152602001828054610743906111ef565b80156107905780601f1061076557610100808354040283529160200191610790565b820191906000526020600020905b81548152906001019060200180831161077357829003601f168201915b5050505050908060020154905083565b60006060600080841180156107b757506004548411155b6107f6576040517f08c379a00000000000000000000000000000000000000000000000000000000081526004016107ed906110fa565b60405180910390fd5b60006006600086815260200190815260200160002060405180606001604052908160008201548152602001600182018054610830906111ef565b80601f016020809104026020016040519081016040528092919081815260200182805461085c906111ef565b80156108a95780601f1061087e576101008083540402835291602001916108a9565b820191906000526020600020905b81548152906001019060200180831161088c57829003601f168201915b505050505081526020016002820154815250509050806000015181602001518260400151935093509350509193909250565b6000600760008373ffffffffffffffffffffffffffffffffffffffff1673ffffffffffffffffffffffffffffffffffffffff16815260200190815260200160002060009054906101000a900460ff169050919050565b606060008060008060006001600254600354600454600554600254421015801561095d57506003544211155b858054610969906111ef565b80601f0160208091040260200160405190810160405280929190818152602001828054610995906111ef565b80156109e25780601f106109b7576101008083540402835291602001916109e2565b820191906000526020600020905b8154815290600101906020018083116109c557829003601f168201915b50505050509550955095509550955095509550909192939495565b60045481565b60025481565b60018054610a16906111ef565b80601f0160208091040260200160405190810160405280929190818152602001828054610a42906111ef565b8015610a8f5780601f10610a6457610100808354040283529160200191610a8f565b820191906000526020600020905b815481529060010190602001808311610a7257829003601f168201915b505050505081565b60035481565b60008054906101000a900473ffffffffffffffffffffffffffffffffffffffff1681565b60405180606001604052806000815260200160608152602001600081525090565b600080fd5b6000819050919050565b610afa81610ae7565b8114610b0557600080fd5b50565b600081359050610b1781610af1565b92915050565b600060208284031215610b3357610b32610ae2565b5b6000610b4184828501610b08565b91505092915050565b600073ffffffffffffffffffffffffffffffffffffffff82169050919050565b6000610b7582610b4a565b9050919050565b610b8581610b6a565b8114610b9057600080fd5b50565b600081359050610ba281610b7c565b92915050565b600060208284031215610bbe57610bbd610ae2565b5b6000610bcc84828501610b93565b91505092915050565b60008115159050919050565b610bea81610bd5565b82525050565b6000602082019050610c056000830184610be1565b92915050565b610c1481610ae7565b82525050565b6000602082019050610c2f6000830184610c0b565b92915050565b600081519050919050565b600082825260208201905092915050565b6000819050602082019050919050565b610c6a81610ae7565b82525050565b600081519050919050565b600082825260208201905092915050565b60005b83811015610caa578082015181840152602081019050610c8f565b60008484015250505050565b6000601f19601f8301169050919050565b6000610cd282610c70565b610cdc8185610c7b565b9350610cec818560208601610c8c565b610cf581610cb6565b840191505092915050565b6000606083016000830151610d186000860182610c61565b5060208301518482036020860152610d308282610cc7565b9150506040830151610d456040860182610c61565b508091505092915050565b6000610d5c8383610d00565b905092915050565b6000602082019050919050565b6000610d7c82610c35565b610d868185610c40565b935083602082028501610d9885610c51565b8060005b85811015610dd45784840389528151610db58582610d50565b9450610dc083610d64565b925060208a01995050600181019050610d9c565b50829750879550505050505092915050565b60006020820190508181036000830152610e008184610d71565b905092915050565b600082825260208201905092915050565b6000610e2482610c70565b610e2e8185610e08565b9350610e3e818560208601610c8c565b610e4781610cb6565b840191505092915050565b6000606082019050610e676000830186610c0b565b8181036020830152610e798185610e19565b9050610e886040830184610c0b565b949350505050565b600060c0820190508181036000830152610eaa8189610e19565b9050610eb96020830188610c0b565b610ec66040830187610c0b565b610ed36060830186610c0b565b610ee06080830185610c0b565b610eed60a0830184610be1565b979650505050505050565b60006020820190508181036000830152610f128184610e19565b905092915050565b610f2381610b6a565b82525050565b6000602082019050610f3e6000830184610f1a565b92915050565b7f456c656374696f6e20686173206e6f7420737461727465642079657400000000600082015250565b6000610f7a601c83610e08565b9150610f8582610f44565b602082019050919050565b60006020820190508181036000830152610fa981610f6d565b9050919050565b7f456c656374696f6e2068617320656e6465640000000000000000000000000000600082015250565b6000610fe6601283610e08565b9150610ff182610fb0565b602082019050919050565b6000602082019050818103600083015261101581610fd9565b9050919050565b7f596f75206861766520616c726561647920766f74656420696e2074686973206560008201527f6c656374696f6e00000000000000000000000000000000000000000000000000602082015250565b6000611078602783610e08565b91506110838261101c565b604082019050919050565b600060208201905081810360008301526110a78161106b565b9050919050565b7f496e76616c69642063616e646964617465204944000000000000000000000000600082015250565b60006110e4601483610e08565b91506110ef826110ae565b602082019050919050565b60006020820190508181036000830152611113816110d7565b9050919050565b7f4e487b7100000000000000000000000000000000000000000000000000000000600052601160045260246000fd5b600061115482610ae7565b91507fffffffffffffffffffffffffffffffffffffffffffffffffffffffffffffffff82036111865761118561111a565b5b600182019050919050565b7f4e487b7100000000000000000000000000000000000000000000000000000000600052604160045260246000fd5b7f4e487b7100000000000000000000000000000000000000000000000000000000600052602260045260246000fd5b6000600282049050600182168061120757607f821691505b60208210810361121a576112196111c0565b5b50919050565b600061122b82610ae7565b915061123683610ae7565b925082820390508181111561124e5761124d61111a565b5b92915050565b7f4e487b7100000000000000000000000000000000000000000000000000000000600052603260045260246000fdfea264697066735822122093366263ddfc317ed4c3297a743336568f482a36c3c91edceaf522c05004abe964736f6c63430008130033",
  "linkReferences": {},
  "deployedLinkReferences": {}
}